:100000000C942A000C9447000C94F7070C940708F2
:100010000C9447000C9447000C9447000C94470044
:100020000C9447000C9447000C94C3060C944700B2
:100030000C9447000C9447000C9447000C94470024
:100040000C9447000C9447000C9447000C94470014
:100050000C94470011241FBECFE5D8E0DEBFCDBF12
:1000600010E0A0E6B0E0E6E0FCE202C005900D92F0
:10007000A238B107D9F710E0A2E8B0E001C01D92A4
:10008000A638B107E1F70E9471140C9401160C9484
:100090000000EF92FF920F931F937B018C0120E0F1
:1000A00030E040E05FE40E94490388238CF0C801FF
:1000B000B70120E030E040E05FE40E94C1010E940F
:1000C000A9039B01AC01205030404040504806C07D
:1000D000C801B7010E94A9039B01AC01B901CA0183
:1000E0001F910F91FF90EF900895A0E0B0E0EBE733
:1000F000F0E00C94CA15DC012B01FA019C919230BE
:1001000008F439C1EB018881823008F433C194309E
:1001100069F4843009F02FC111969C91119789815F
:10012000981709F428C1AAE7B0E025C1843009F482
:1001300021C18230A9F4923009F01DC19A01AD01AC
:1001400088E0EA010990AE01E90109929E0181501F
:10015000C1F7E201898111969C918923818308C1AD
:10016000923009F407C112962D903C901397EB0141
:100170008A819B811496AD90BD90CD90DC901797AD
:10018000EC80FD800E811F819101281B390BB90184
:1001900037FF04C066277727621B730B6032710537
:1001A0000CF061C0121613066CF537014801062EDB
:1001B00004C096948794779467940A94D2F721E0C8
:1001C00030E040E050E004C0220F331F441F551FB1
:1001D0006A95D2F721503040404050402E213F21B7
:1001E00040235123211531054105510521F021E01E
:1001F00030E040E050E079018A01E628F72808293C
:1002000019293CC0232BD1F1260E371E350146019A
:10021000062E04C096948794779467940A94D2F734
:1002200021E030E040E050E004C0220F331F441FC3
:10023000551F6A95D2F721503040404050402A2146
:100240003B214C215D21211531054105510521F04E
:1002500021E030E040E050E059016A01A628B728CB
:10026000C828D9280BC0821593052CF01C01AA249C
:10027000BB24650103C0EE24FF24870111969C91E5
:10028000D20111968C91981709F445C0992339F041
:10029000A80197012A193B094C095D0906C0A6016E
:1002A00095012E193F09400B510B57FD08C01182D3
:1002B0003382228224833583468357831DC081E0A5
:1002C00081833382228288279927DC01821B930B4A
:1002D000A40BB50B84839583A683B7830DC0220F2F
:1002E000331F441F551F24833583468357838281E0
:1002F000938101979383828324813581468157813D
:10030000DA01C9010197A109B1098F5F9F4FAF4F72
:10031000BF4328F30BC0918333822282EA0CFB1C7B
:100320000C1D1D1DE482F5820683178383E0808304
:10033000248135814681578157FF1AC0C901AA27F8
:1003400097FDA095BA2F81709070A070B0705695EF
:10035000479537952795822B932BA42BB52B848318
:100360009583A683B7838281938101969383828349
:10037000DF0101C0D201CD01CDB7DEB7E2E10C94BF
:10038000E615A0E2B0E0E7ECF1E00C94D615698345
:100390007A838B839C832D833E834F835887E9E048
:1003A000EE2EF12CEC0EFD1ECE010196B7010E943F
:1003B000D2048E010F5E1F4FCE010596B8010E9438
:1003C000D2048A8991E089278A8BC701B801AE01DE
:1003D000475E5F4F0E9475000E94FD03A096E6E015
:1003E0000C94F215A0E2B0E0E8EFF1E00C94D61521
:1003F00069837A838B839C832D833E834F835887C5
:10040000F9E0EF2EF12CEC0EFD1ECE010196B701A6
:100410000E94D2048E010F5E1F4FCE010596B801D7
:100420000E94D204C701B801AE01475E5F4F0E942F
:1004300075000E94FD03A096E6E00C94F215A0E280
:10044000B0E0E5E2F2E00C94CA1569837A838B830D
:100450009C832D833E834F835887CE010196BE0136
:10046000675F7F4F0E94D204CE010596BE016F5E8A
:100470007F4F0E94D2049985923088F0898982301A
:10048000C8F0943019F4823051F404C0843029F457
:10049000923081F48AE790E0C6C0923049F420E0BF
:1004A0009A858A89981321E02A87CE010996BBC0D4
:1004B000823049F420E09A858A89981321E02A8BBA
:1004C000CE014196B0C02D843E844F8458886D88FB
:1004D0007E888F88988CEE24FF248701AA24BB2471
:1004E000650140E050E060E070E0E0E0F0E0C10174
:1004F00081709070892BE9F0E60CF71C081D191D1E
:100500009A01AB012A0D3B1D4C1D5D1D80E090E062
:10051000A0E0B0E0E614F7040805190520F481E036
:1005200090E0A0E0B0E0BA01A901480F591F6A1F8E
:100530007B1FAA0CBB1CCC1CDD1C97FE08C081E0F5
:1005400090E0A0E0B0E0A82AB92ACA2ADB2A3196B6
:10055000E032F10549F0660C771C881C991C569412
:10056000479437942794C3CFFA85EA892B893C892D
:100570008B859C85280F391F2E5F3F4F17C0CA01FE
:1005800081709070892B61F016950795F794E79428
:1005900080E090E0A0E0B0E8E82AF92A0A2B1B2BC3
:1005A00076956795579547952F5F3F4F77FDE7CF36
:1005B0000CC0440F551F661F771F17FD4160EE0CDE
:1005C000FF1C001F111F21503040403090E05907A0
:1005D00090E0690790E4790760F32B8F3C8FDB0193
:1005E000CA018F779070A070B07080349105A1051A
:1005F000B10561F447FD0AC0E114F10401051105DC
:1006000029F0405C5F4F6F4F7F4F40781A8EFE1786
:1006100011F081E08A8F4D8F5E8F6F8F78A383E01A
:10062000898FCE0149960E94FD03A096E2E10C94C9
:10063000E615A8E1B0E0EFE1F3E00C94D61569838C
:100640007A838B839C832D833E834F83588789E0F5
:10065000E82EF12CEC0EFD1ECE010196B7010E9492
:10066000D2048E010F5E1F4FCE010596B8010E9485
:10067000D2048985823040F08989823028F0C70110
:10068000B8010E944A0501C08FEF6896E6E00C941D
:10069000F215A8E1B0E0EFE4F3E00C94D61569831D
:1006A0007A838B839C832D833E834F83588789E095
:1006B000E82EF12CEC0EFD1ECE010196B7010E9432
:1006C000D2048E010F5E1F4FCE010596B8010E9425
:1006D000D2048985823040F08989823028F0C701B0
:1006E000B8010E944A0501C08FEF6896E6E00C94BD
:1006F000F215A8E1B0E0EFE7F3E00C94D6156983BA
:100700007A838B839C832D833E834F83588789E034
:10071000E82EF12CEC0EFD1ECE010196B7010E94D1
:10072000D2048E010F5E1F4FCE010596B8010E94C4
:10073000D2048985823040F08989823028F0C7014F
:10074000B8010E944A0501C081E06896E6E00C9479
:10075000F215ACE0B0E0EFEAF3E00C94DA1569834F
:100760007A838B839C83CE010196BE016B5F7F4FA2
:100770000E94D2048D81823061F1823050F1843048
:1007800021F48E81882351F12EC02F81388537FDC9
:1007900020C06E812F3131051CF06623F9F023C093
:1007A0008EE190E0821B930B29853A854B855C8511
:1007B00004C056954795379527958A95D2F76623B5
:1007C000B1F050954095309521953F4F4F4F5F4F79
:1007D0000EC020E030E040E050E009C02FEF3FEFD6
:1007E0004FEF5FE704C020E030E040E050E8B9019F
:1007F000CA012C96E2E00C94F615DF92EF92FF927C
:100800000F931F93FC01E480F58006811781D1804E
:100810008081823048F480E090E0A0E1B0E0E82AF6
:10082000F92A0A2B1B2BA5C0843009F49FC0823003
:1008300021F4EE24FF24870105C0E114F104010531
:10084000110519F4E0E0F0E096C0628173819FEF3A
:10085000623879070CF05BC022E83FEF261B370BAC
:100860002A3131052CF020E030E040E050E02AC091
:10087000B801A701022E04C0769567955795479554
:100880000A94D2F781E090E0A0E0B0E004C0880FC5
:10089000991FAA1FBB1F2A95D2F70197A109B10979
:1008A0008E219F21A023B1230097A105B10521F03E
:1008B00081E090E0A0E0B0E09A01AB01282B392B59
:1008C0004A2B5B2BDA01C9018F779070A070B07052
:1008D00080349105A105B10539F427FF09C0205CDA
:1008E0003F4F4F4F5F4F04C0215C3F4F4F4F5F4F13
:1008F000E0E0F0E02030A0E03A07A0E04A07A0E402
:100900005A0710F0E1E0F0E079018A0127C0603871
:10091000710564F5FB01E158FF4FD801C7018F77DE
:100920009070A070B07080349105A105B10539F4C4
:10093000E7FE0DC080E490E0A0E0B0E004C08FE3EB
:1009400090E0A0E0B0E0E80EF91E0A1F1B1F17FFA1
:1009500005C016950795F794E794319687E01695AC
:100960000795F794E7948A95D1F705C0EE24FF2404
:100970008701EFEFF0E06E2F679566276795902F60
:100980009F77D794DD24D7948E2F8695492F462BB9
:10099000582F5D29B701CA011F910F91FF90EF9069
:1009A000DF900895FC01DB01408151812281622F9B
:1009B0006F7770E0221F2227221F9381892F880FD3
:1009C000822B282F30E0991F9927991F11969C930D
:1009D000119721153105A9F54115510561057105DD
:1009E00011F482E037C082E89FEF13969C938E93B8
:1009F00012979A01AB0167E0220F331F441F551F66
:100A00006A95D1F783E08C930DC0220F331F441FEA
:100A1000551F12968D919C911397019713969C9355
:100A20008E931297203080E0380780E0480780E4FA
:100A3000580758F314962D933D934D935C93179755
:100A400008952F3F310579F4411551056105710570
:100A500019F484E08C93089564FF03C081E08C93C3
:100A600012C01C9210C02F57304013963C932E9307
:100A7000129783E08C9387E0440F551F661F771F02
:100A80008A95D1F7706414964D935D936D937C9322
:100A9000179708951F93DC01FB019C91923008F495
:100AA00047C08081823008F443C0943051F41196DD
:100AB0001C91843099F58181682F70E0611B710968
:100AC0003FC0843021F0923031F48230B9F181811D
:100AD000882389F12DC011961C9111978230F1F075
:100AE00081811817D9F412962D913C911397828128
:100AF00093818217930794F028173907BCF0149656
:100B00008D919D910D90BC91A02D248135814681C0
:100B10005781281739074A075B0718F4112341F05A
:100B20000AC082179307A407B50740F4112319F0F0
:100B300061E070E005C06FEF7FEF02C060E070E041
:100B4000CB011F910895DF93CF93CDB7DEB7A1E41A
:100B5000B0E0E1E4F0E0808188608C93CF91DF9198
:100B60000895DF93CF93CDB7DEB7E1E4F0E088E1FD
:100B70008083E1E4F0E01082CF91DF910895DF936C
:100B8000CF930F92CDB7DEB789838981883078F40F
:100B9000A1E4B0E0E1E4F0E08081887F8C93A1E4FF
:100BA000B0E0E1E4F0E090818981892B8C930F9093
:100BB000CF91DF910895DF93CF93CDB7DEB7E9E210
:100BC000F0E083E38083A0E4B0E0E0E4F0E0808143
:100BD000282FE0E4F0E08081882F90E09695982F10
:100BE000882797958795282BE0E4F0E08081882F6F
:100BF00090E0880F991F880F991F282BE0E4F0E000
:100C00008081882F90E0880F991F822B8C93AAE215
:100C1000B0E0EAE2F0E0808180618C93AAE2B0E08B
:100C2000EAE2F0E0808188608C93CF91DF910895B3
:100C3000DF93CF930F92CDB7DEB78983EBE2F0E07D
:100C40008081882F90E0807290709595879595951A
:100C5000879595958795959587959595879500970F
:100C600069F3ECE2F0E0898180830F90CF91DF910E
:100C70000895DF93CF9300D00F92CDB7DEB79B835B
:100C80008A8319820EC08981282F30E08A819B8156
:100C9000FC01E20FF31F80810E94180689818F5F9B
:100CA00089838981282F30E08A819B81FC01E20FB2
:100CB000F31F8081882339F70F900F900F90CF9109
:100CC000DF910895DF93CF930F92CDB7DEB7EBE2BC
:100CD000F0E08081881F8827881F882F90E090701F
:100CE0000097A9F3ECE2F0E080818983ABE2B0E009
:100CF000EBE2F0E0808180688C9389810F90CF9146
:100D0000DF910895DF93CF93CDB7DEB7E3E5F0E051
:100D100085E08083A9E5B0E0E9E5F0E080818160CD
:100D20008C93CF91DF910895DF93CF930F92CDB73E
:100D3000DEB78983E2E5F0E08981819580830F90B9
:100D4000CF91DF910895DF93CF930F92CDB7DEB7A8
:100D50008983ECE5F0E0898180830F90CF91DF916A
:100D60000895DF93CF9300D0CDB7DEB79A83898300
:100D700089819A8190938300809382000F900F90D5
:100D8000CF91DF9108951F920F920FB60F92112409
:100D90002F933F934F935F936F937F938F939F9383
:100DA000AF93BF93EF93FF93DF93CF93CDB7DEB7AE
:100DB000E0918200F09183000995CF91DF91FF913E
:100DC000EF91BF91AF919F918F917F916F915F91C3
:100DD0004F913F912F910F900FBE0F901F9018953C
:100DE000DF93CF93CDB7DEB7AFE4B0E0EFE4F0E050
:100DF00080818E7F8C93AFE4B0E0EFE4F0E08081FF
:100E000082608C93AEE4B0E0EEE4F0E08081886034
:100E10008C93AEE4B0E0EEE4F0E0808180618C93EE
:100E2000AFE4B0E0EFE4F0E080818F7E8C93AFE43C
:100E3000B0E0EFE4F0E0808180628C93AEE4B0E05B
:100E4000EEE4F0E0808181608C93AEE4B0E0EEE40B
:100E5000F0E0808182608C93AEE4B0E0EEE4F0E0FC
:100E600080818B7F8C93AFE4B0E0EFE4F0E0808191
:100E700084608C93E6E4F0E084EC99E091838083D5
:100E8000CF91DF910895DF93CF9300D0CDB7DEB738
:100E90009A838983ECE4F0E089819A819095819529
:100EA0009F4F918380830F900F90CF91DF91089592
:100EB000DF93CF9300D0CDB7DEB79A838983E6E482
:100EC000F0E089819A81918380830F900F90CF9178
:100ED000DF910895DF93CF9300D0CDB7DEB79A832B
:100EE0008983EAE4F0E089819A81918380830F907D
:100EF0000F90CF91DF910895DF93CF9300D0CDB7BE
:100F0000DEB79A838983E8E4F0E089819A8191834E
:100F100080830F900F90CF91DF910895DF93CF934F
:100F2000CDB7DEB7AFE5B0E0EFE5F0E080818068F7
:100F30008C93CF91DF910895DF93CF93CDB7DEB738
:100F4000AFE5B0E0EFE5F0E080818F778C93CF9153
:100F5000DF910895DF93CF93CDB7DEB7ABE5B0E077
:100F6000EBE5F0E0808180648C93A5E5B0E0E5E5F9
:100F7000F0E0808182608C93A5E5B0E0E5E5F0E0EB
:100F800080818E7F8C93CF91DF910895DF93CF93F3
:100F9000CDB7DEB7ABE5B0E0EBE5F0E0808180688F
:100FA0008C93A5E5B0E0E5E5F0E0808188608C9366
:100FB000A5E5B0E0E5E5F0E080818B7F8C93CF91F3
:100FC000DF910895DF93CF93CDB7DEB7ABE5B0E007
:100FD000EBE5F0E0808180628C93A5E5B0E0E5E58B
:100FE000F0E0808182608C93CF91DF9108951F9211
:100FF0000F920FB60F921124DF93CF93CDB7DEB7C8
:10100000CF91DF910F900FBE0F901F9018951F92F8
:101010000F920FB60F921124DF93CF93CDB7DEB7A7
:10102000CF91DF910F900FBE0F901F901895DF9317
:10103000CF93CDB7DEB7EAE3F0E08EEF8083E7E34E
:10104000F0E08EEF8083E4E3F0E08FEF8083E1E374
:10105000F0E088EF8083EBE3F0E01082E8E3F0E07B
:101060001082E5E3F0E01082E2E3F0E084E08083C8
:10107000CF91DF910895DF93CF93CDB7DEB7279758
:101080000FB6F894DEBF0FBECDBF89836A834B8352
:101090008981843008F0F2C08A81883008F0EEC07F
:1010A0008B81823008F0EAC08B81882309F074C0FC
:1010B0008981282F30E03F832E838E819F8181306C
:1010C000910559F12E813F81223031052CF48E811A
:1010D0009F81009769F0D2C02E813F812230310577
:1010E00089F18E819F818330910509F440C0C6C08B
:1010F000AAE3B0E0EAE3F0E08081482F8A81282F5C
:1011000030E081E090E0022E02C0880F991F0A941F
:10111000E2F7809584238C93B1C0A7E3B0E0E7E3C6
:10112000F0E08081482F8A81282F30E081E090E034
:10113000022E02C0880F991F0A94E2F7809584233B
:101140008C939CC0A4E3B0E0E4E3F0E08081482FFE
:101150008A81282F30E081E090E0022E02C0880FC3
:10116000991F0A94E2F7809584238C9387C0A1E3AA
:10117000B0E0E1E3F0E08081482F8A81282F30E061
:1011800081E090E0022E02C0880F991F0A94E2F7D6
:10119000809584238C9372C08B81813009F06EC05E
:1011A0008981282F30E03D832C838C819D81813083
:1011B000910549F12C813D81223031052CF48C813F
:1011C0009D81009761F05AC02C813D81223031050C
:1011D00071F18C819D8183309105E9F14FC0AAE3C3
:1011E000B0E0EAE3F0E08081482F8A81282F30E0E8
:1011F00081E090E0022E02C0880F991F0A94E2F766
:10120000842B8C933BC0A7E3B0E0E7E3F0E0808160
:10121000482F8A81282F30E081E090E0022E02C022
:10122000880F991F0A94E2F7842B8C9327C0A4E3BC
:10123000B0E0E4E3F0E08081482F8A81282F30E09D
:1012400081E090E0022E02C0880F991F0A94E2F715
:10125000842B8C9313C0A1E3B0E0E1E3F0E0808144
:10126000482F8A81282F30E081E090E0022E02C0D2
:10127000880F991F0A94E2F7842B8C9327960FB658
:10128000F894DEBF0FBECDBFCF91DF910895DF93FD
:10129000CF93CDB7DEB727970FB6F894DEBF0FBE5A
:1012A000CDBF89836A834B838981843008F0F2C083
:1012B0008A81883008F0EEC08B81823008F0EAC065
:1012C0008B81882309F074C08981282F30E03F8307
:1012D0002E838E819F818130910559F12E813F812E
:1012E000223031052CF48E819F81009769F0D2C0A5
:1012F0002E813F812230310589F18E819F8183309B
:10130000910509F440C0C6C0ABE3B0E0EBE3F0E008
:101310008081482F8A81282F30E081E090E0022EE2
:1013200002C0880F991F0A94E2F7809584238C935A
:10133000B1C0A8E3B0E0E8E3F0E08081482F8A8103
:10134000282F30E081E090E0022E02C0880F991F24
:101350000A94E2F7809584238C939CC0A5E3B0E0C7
:10136000E5E3F0E08081482F8A81282F30E081E09A
:1013700090E0022E02C0880F991F0A94E2F7809530
:1013800084238C9387C0A2E3B0E0E2E3F0E08081A5
:10139000482F8A81282F30E081E090E0022E02C0A1
:1013A000880F991F0A94E2F7809584238C9372C06A
:1013B0008B81813009F06EC08981282F30E03D8318
:1013C0002C838C819D818130910549F12C813D8157
:1013D000223031052CF48C819D81009761F05AC038
:1013E0002C813D812230310571F18C819D818330CA
:1013F0009105E9F14FC0ABE3B0E0EBE3F0E08081B1
:10140000482F8A81282F30E081E090E0022E02C030
:10141000880F991F0A94E2F7842B8C933BC0A8E3B2
:10142000B0E0E8E3F0E08081482F8A81282F30E0A7
:1014300081E090E0022E02C0880F991F0A94E2F723
:10144000842B8C9327C0A5E3B0E0E5E3F0E0808136
:10145000482F8A81282F30E081E090E0022E02C0E0
:10146000880F991F0A94E2F7842B8C9313C0A2E390
:10147000B0E0E2E3F0E08081482F8A81282F30E05D
:1014800081E090E0022E02C0880F991F0A94E2F7D3
:10149000842B8C9327960FB6F894DEBF0FBECDBF7A
:1014A000CF91DF910895DF93CF9300D000D00F92BA
:1014B000CDB7DEB78A836B838A81843008F09DC004
:1014C0008B81883008F099C08A81282F30E03D83D5
:1014D0002C834C815D8141305105B1F18C819D811E
:1014E0008230910534F42C813D812115310571F054
:1014F00084C04C815D814230510509F443C08C8128
:101500009D818330910509F45BC077C0E9E3F0E089
:101510008081482F50E08B81282F30E081E090E0DF
:1015200002C0880F991F2A95E2F79A0128233923D0
:101530008B81882F90E0A90102C0559547958A9527
:10154000E2F7CA01898359C0E6E3F0E08081482FC1
:1015500050E08B81282F30E081E090E002C0880FBE
:10156000991F2A95E2F79A01282339238B81882F26
:1015700090E0A90102C0559547958A95E2F7CA0106
:1015800089833BC0E3E3F0E08081482F50E08B810A
:10159000282F30E081E090E002C0880F991F2A9543
:1015A000E2F79A01282339238B81882F90E0A90143
:1015B00002C0559547958A95E2F7CA0189831DC0F7
:1015C000E0E3F0E08081482F50E08B81282F30E06D
:1015D00081E090E002C0880F991F2A95E2F79A01F6
:1015E000282339238B81882F90E0A90102C05595CB
:1015F00047958A95E2F7CA01898389810F900F90F8
:101600000F900F900F90CF91DF910895DF93CF93BC
:1016100000D000D000D0CDB7DEB789836A8389813E
:10162000843008F067C08A81882379F58981282F62
:1016300030E03E832D838D819E8181309105C9F0FC
:101640002D813E81223031052CF48D819E810097C1
:1016500061F050C02D813E812230310571F08D81C5
:101660009E818330910569F045C0EAE3F0E0108285
:1016700041C0E7E3F0E010823DC0E4E3F0E0108217
:1016800039C0E1E3F0E0108235C08A81813091F504
:101690008981282F30E03C832B838B819C81813092
:1016A0009105D1F02B813C81223031052CF48B81C6
:1016B0009C81009761F01EC02B813C812230310556
:1016C00081F08B819C818330910581F013C0EAE326
:1016D000F0E08FEF80830EC0E7E3F0E08FEF8083D0
:1016E00009C0E4E3F0E08FEF808304C0E1E3F0E0C1
:1016F0008FEF808326960FB6F894DEBF0FBECDBF66
:10170000CF91DF910895DF93CF9300D000D0CDB774
:10171000DEB789836A838981843090F58981282F97
:1017200030E03C832B838B819C8181309105D1F00B
:101730002B813C81223031052CF48B819C810097D8
:1017400061F01EC02B813C812230310581F08B81FC
:101750009C818330910581F013C0EBE3F0E08A8136
:1017600080830EC0E8E3F0E08A81808309C0E5E36E
:10177000F0E08A81808304C0E2E3F0E08A81808324
:101780000F900F900F900F90CF91DF910895DF93FE
:10179000CF9300D000D0CDB7DEB78A838A81843062
:1017A00090F58A81282F30E03C832B838B819C81AC
:1017B00081309105D1F02B813C81223031052CF410
:1017C0008B819C81009761F01EC02B813C8122306F
:1017D000310581F08B819C818330910581F013C0AC
:1017E000E9E3F0E0808189830EC0E6E3F0E08081E8
:1017F000898309C0E3E3F0E08081898304C0E0E3EA
:10180000F0E08081898389810F900F900F900F9075
:10181000CF91DF910895DF93CF93CDB7DEB7A7E2E5
:10182000B0E0E7E2F0E080818F778C93A7E2B0E050
:10183000E7E2F0E0808180648C93A7E2B0E0E7E229
:10184000F0E0808180628C93A6E2B0E0E6E2F0E016
:10185000808184608C93A6E2B0E0E6E2F0E08081D3
:1018600082608C93A6E2B0E0E6E2F0E080818160E5
:101870008C93A6E2B0E0E6E2F0E0808180688C9391
:10188000CF91DF910895DF93CF930F92CDB7DEB75D
:101890008983A7E2B0E0E7E2F0E08081807E8C936C
:1018A000A7E2B0E0E7E2F0E090818981892B8C9398
:1018B000A6E2B0E0E6E2F0E0808180648C93E6E2AC
:1018C000F0E08081882F90E08071907095958795E9
:1018D00095958795959587959595879581309105EF
:1018E00071F3A6E2B0E0E6E2F0E0808180618C93E3
:1018F000E5E2F0E080810F90CF91DF910895DF93D2
:10190000CF930F92CDB7DEB78983898161E041E043
:101910000E944709898162E041E00E94470989816C
:1019200063E041E00E944709898164E041E00E9450
:101930004709898165E041E00E944709898166E0A5
:1019400041E00E944709898167E040E00E94470921
:101950000F90CF91DF910895DF93CF930F92CDB782
:10196000DEB78983898161E040E00E94470989816F
:1019700062E041E00E944709898163E041E00E9402
:101980004709898164E040E00E944709898165E058
:1019900040E00E944709898166E040E00E944709D3
:1019A000898167E040E00E9447090F90CF91DF9165
:1019B0000895DF93CF930F92CDB7DEB789838981E6
:1019C00061E041E00E944709898162E041E00E94B4
:1019D0004709898163E040E00E944709898164E00A
:1019E00041E00E944709898165E041E00E94470982
:1019F000898166E040E00E944709898167E041E013
:101A00000E9447090F90CF91DF910895DF93CF9304
:101A10000F92CDB7DEB78983898161E041E00E94F2
:101A20004709898162E041E00E944709898163E0BA
:101A300041E00E944709898164E041E00E94470932
:101A4000898165E040E00E944709898166E040E0C5
:101A50000E944709898167E041E00E9447090F9091
:101A6000CF91DF910895DF93CF930F92CDB7DEB77B
:101A70008983898161E040E00E944709898162E0B1
:101A800041E00E944709898163E041E00E944709E3
:101A9000898164E040E00E944709898165E040E077
:101AA0000E944709898166E041E00E9447098981D7
:101AB00067E041E00E9447090F90CF91DF910895C0
:101AC000DF93CF930F92CDB7DEB78983898161E031
:101AD00041E00E944709898162E040E00E94470995
:101AE000898163E041E00E944709898164E041E027
:101AF0000E944709898165E040E00E944709898189
:101B000066E041E00E944709898167E041E00E9468
:101B100047090F90CF91DF910895DF93CF930F92F4
:101B2000CDB7DEB78983898161E041E00E94470932
:101B3000898162E040E00E944709898163E041E0D9
:101B40000E944709898164E041E00E944709898138
:101B500065E041E00E944709898166E041E00E941A
:101B60004709898167E041E00E9447090F90CF91C2
:101B7000DF910895DF93CF930F92CDB7DEB78983BE
:101B8000898161E041E00E944709898162E041E08A
:101B90000E944709898163E041E00E9447098981E9
:101BA00064E040E00E944709898165E040E00E94CE
:101BB0004709898166E040E00E944709898167E022
:101BC00040E00E9447090F90CF91DF910895DF9385
:101BD000CF930F92CDB7DEB78983898161E041E071
:101BE0000E944709898162E041E00E94470989819A
:101BF00063E041E00E944709898164E041E00E947E
:101C00004709898165E041E00E944709898166E0D2
:101C100041E00E944709898167E041E00E9447094D
:101C20000F90CF91DF910895DF93CF930F92CDB7AF
:101C3000DEB78983898161E041E00E94470989819B
:101C400062E041E00E944709898163E041E00E942F
:101C50004709898164E041E00E944709898165E084
:101C600040E00E944709898166E041E00E944709FF
:101C7000898167E041E00E9447090F90CF91DF9191
:101C80000895DF93CF93CDB7DEB78CE790E00E9445
:101C90007C07CF91DF910895DF93CF93CDB7DEB767
:101CA0008AEF90E00E947C07CF91DF910895DF9347
:101CB000CF9300D0CDB7DEB789836A8389816A81EB
:101CC00041E00E9447090F900F90CF91DF91089556
:101CD000DF93CF9300D0CDB7DEB789836A83898144
:101CE0006A8140E00E9447090F900F90CF91DF91E9
:101CF0000895DF93CF93CDB7DEB76E970FB6F89404
:101D0000DEBF0FBECDBF8D8F6E8F8D8D6E8D0E940D
:101D1000530A813009F078C08D8D6E8D40E00E94AD
:101D2000470980E090E0A8ECB2E4898F9A8FAB8FEE
:101D3000BC8F698D7A8D8B8D9C8D20E030E04AEFD1
:101D400054E40E941F02DC01CB018D8B9E8BAF8B74
:101D5000B88F6D897E898F89988D20E030E040E8CA
:101D60005FE30E94790388232CF481E090E09C8B50
:101D70008B8B3FC06D897E898F89988D20E03FEFE6
:101D80004FE757E40E94190318164CF5698D7A8DB8
:101D90008B8D9C8D20E030E040E251E40E941F02D8
:101DA000DC01CB01BC01CD010E944900DC01CB016B
:101DB0009C8B8B8B0FC088EC90E09A8B898B8989E8
:101DC0009A890197F1F79A8B898B8B899C89019766
:101DD0009C8B8B8B8B899C89009769F793C06D894D
:101DE0007E898F89988D0E944900DC01CB019C8BF4
:101DF0008B8B8B899C89988B8F878F85988901978E
:101E0000F1F7988B8F877EC08D8D6E8D0E94530A5F
:101E1000882309F077C08D8D6E8D41E00E944709BF
:101E200080E090E0A8ECB2E48B879C87AD87BE870A
:101E30006B857C858D859E8520E030E04AEF54E4FB
:101E40000E941F02DC01CB018F839887A987BA8784
:101E50006F81788589859A8520E030E040E85FE3EE
:101E60000E94790388232CF481E090E09E838D8387
:101E70003FC06F81788589859A8520E03FEF4FE7E5
:101E800057E40E94190318164CF56B857C858D85E7
:101E90009E8520E030E040E251E40E941F02DC0118
:101EA000CB01BC01CD010E944900DC01CB019E8326
:101EB0008D830FC088EC90E09C838B838B819C8109
:101EC0000197F1F79C838B838D819E8101979E837F
:101ED0008D838D819E81009769F714C06F8178850D
:101EE00089859A850E944900DC01CB019E838D8300
:101EF0008D819E819A83898389819A810197F1F7E7
:101F00009A8389836E960FB6F894DEBF0FBECDBF5D
:101F1000CF91DF910895DF93CF93CDB7DEB76F9761
:101F20000FB6F894DEBF0FBECDBF8E8F6F8F1D8EA4
:101F3000F1C08E8D6F8D41E00E94470980E090E0F6
:101F4000A8ECB2E4898F9A8FAB8FBC8F698D7A8DA4
:101F50008B8D9C8D20E030E04AEF54E40E941F02FC
:101F6000DC01CB018D8B9E8BAF8BB88F6D897E8909
:101F70008F89988D20E030E040E85FE30E9479038C
:101F800088232CF481E090E09C8B8B8B3FC06D8983
:101F90007E898F89988D20E03FEF4FE757E40E94BC
:101FA000190318164CF5698D7A8D8B8D9C8D20E068
:101FB00030E040E251E40E941F02DC01CB01BC0191
:101FC000CD010E944900DC01CB019C8B8B8B0FC0A3
:101FD00088EC90E09A8B898B89899A890197F1F72F
:101FE0009A8B898B8B899C8901979C8B8B8B8B8996
:101FF0009C89009769F714C06D897E898F89988DB7
:102000000E944900DC01CB019C8B8B8B8B899C89C6
:10201000988B8F878F8598890197F1F7988B8F8799
:102020008E8D6F8D40E00E94470980E090E0A8EC23
:10203000B2E48B879C87AD87BE876B857C858D8559
:102040009E8520E030E04AEF54E40E941F02DC014C
:10205000CB018F839887A987BA876F817885898517
:102060009A8520E030E040E85FE30E94790388230E
:102070002CF481E090E09E838D833FC06F81788552
:1020800089859A8520E03FEF4FE757E40E941903C6
:1020900018164CF56B857C858D859E8520E030E09B
:1020A00040E251E40E941F02DC01CB01BC01CD01E2
:1020B0000E944900DC01CB019E838D830FC088EC18
:1020C00090E09C838B838B819C810197F1F79C83AB
:1020D0008B838D819E8101979E838D838D819E81CF
:1020E000009769F714C06F81788589859A850E9469
:1020F0004900DC01CB019E838D838D819E819A8373
:10210000898389819A810197F1F79A8389838D8DDB
:102110008F5F8D8F8D8D8A3008F40BCF6F960FB641
:10212000F894DEBF0FBECDBFCF91DF910895DF934E
:10213000CF93CDB7DEB764970FB6F894DEBF0FBE6E
:10214000CDBF8FEF8B8380E1FE013496DF01982FA6
:102150001D929A95E9F787E08C8388E08D8389E06A
:102160008E8384E0888785E0898786E08A8781E09E
:102170008C8782E08D8783E08E871A823AC081E067
:102180006A8140E00E94470984E0898327C081E09A
:1021900069810E94530A8823F1F481E069810E94D9
:1021A000530A8823D1F38981882F90E09C01245021
:1021B00030408A81482F50E0220F331F220F331FF7
:1021C000CE010196820F931F840F951FFC01339659
:1021D000A081AC8B13C089818F5F8983898188300E
:1021E000B0F281E06A8141E00E9447098A818F5FF5
:1021F0008A838A81843018F2BB81BC8B8C89649677
:102200000FB6F894DEBF0FBECDBFCF91DF9108951A
:10221000DF93CF93CDB7DEB72E970FB6F894DEBF1E
:102220000FBECDBF80E090E0A0E2B2E48B879C8738
:10223000AD87BE876B857C858D859E8520E030E0EF
:102240004AEF54E40E941F02DC01CB018F83988780
:10225000A987BA876F81788589859A8520E030E0E3
:1022600040E85FE30E94790388232CF481E090E04A
:102270009E838D833FC06F81788589859A8520E014
:102280003FEF4FE757E40E94190318164CF56B8592
:102290007C858D859E8520E030E040E251E40E94FF
:1022A0001F02DC01CB01BC01CD010E944900DC0111
:1022B000CB019E838D830FC088EC90E09C838B8341
:1022C0008B819C810197F1F79C838B838D819E810B
:1022D00001979E838D838D819E81009769F714C03D
:1022E0006F81788589859A850E944900DC01CB0140
:1022F0009E838D838D819E819A83898389819A8132
:102300000197F1F79A83898388E30E9499118CE001
:102310000E94991181E00E94991186E00E94991112
:102320002E960FB6F894DEBF0FBECDBFCF91DF91D2
:102330000895DF93CF93CDB7DEB72F970FB6F894FC
:10234000DEBF0FBECDBF8F8783E065E040E00E9417
:10235000470983E066E040E00E94470982E06F851C
:102360000E94830B83E067E041E00E94470980E020
:1023700090E0A0E0B0E48B879C87AD87BE876B853B
:102380007C858D859E8520E030E04AEF54E40E94F4
:102390001F02DC01CB018F839887A987BA876F81E1
:1023A000788589859A8520E030E040E85FE30E94E7
:1023B000790388232CF481E090E09E838D833FC0D5
:1023C0006F81788589859A8520E03FEF4FE757E454
:1023D0000E94190318164CF56B857C858D859E85AA
:1023E00020E030E040E251E40E941F02DC01CB011A
:1023F000BC01CD010E944900DC01CB019E838D838D
:102400000FC088EC90E09C838B838B819C8101972B
:10241000F1F79C838B838D819E8101979E838D83B1
:102420008D819E81009769F714C06F8178858985B9
:102430009A850E944900DC01CB019E838D838D81AA
:102440009E819A83898389819A810197F1F79A8382
:10245000898383E067E040E00E9447092F960FB62A
:10246000F894DEBF0FBECDBFCF91DF910895DF930B
:10247000CF93CDB7DEB72F970FB6F894DEBF0FBE60
:10248000CDBF8F8783E065E041E00E94470983E08C
:1024900066E040E00E94470982E06F850E94830B5E
:1024A00083E067E041E00E94470980E090E0A0E01F
:1024B000B0E48B879C87AD87BE876B857C858D85D7
:1024C0009E8520E030E04AEF54E40E941F02DC01C8
:1024D000CB018F839887A987BA876F817885898593
:1024E0009A8520E030E040E85FE30E94790388238A
:1024F0002CF481E090E09E838D833FC06F817885CE
:1025000089859A8520E03FEF4FE757E40E94190341
:1025100018164CF56B857C858D859E8520E030E016
:1025200040E251E40E941F02DC01CB01BC01CD015D
:102530000E944900DC01CB019E838D830FC088EC93
:1025400090E09C838B838B819C810197F1F79C8326
:102550008B838D819E8101979E838D838D819E814A
:10256000009769F714C06F81788589859A850E94E4
:102570004900DC01CB019E838D838D819E819A83EE
:10258000898389819A810197F1F79A83898383E00E
:1025900067E040E00E9447092F960FB6F894DEBF2F
:1025A0000FBECDBFCF91DF910895DF93CF93CDB70D
:1025B000DEB781E00E949911CF91DF910895DF93FA
:1025C000CF930F92CDB7DEB7898389810E943712EE
:1025D0000F90CF91DF910895DF93CF9300D00F92AA
:1025E000CDB7DEB79B838A8319820EC08981282FDD
:1025F00030E08A819B81FC01E20FF31F80810E9401
:10260000371289818F5F89838981282F30E08A8101
:102610009B81FC01E20FF31F8081882339F70F9023
:102620000F900F90CF91DF910895DF93CF930F928A
:10263000CDB7DEB789838981805D0E9437120F9004
:10264000CF91DF910895DF93CF93CDB7DEB7279772
:102650000FB6F894DEBF0FBECDBF6A837B838C8339
:102660009D834E832F8319828A819B81AC81BD819A
:102670000097A105B10509F0A4C08E816F810E9469
:10268000F3138A81805D0E943712A4C08A819B81E6
:10269000AC81BD812AE030E040E050E0BC01CD01DA
:1026A0000E94A815DC01CB0189838A819B81AC81C2
:1026B000BD81803A26E8920721E0A20720E0B20718
:1026C00060F08F81982F9B5F8E81692F0E94F3139A
:1026D0008981805D0E94371262C08A819B81AC81B2
:1026E000BD81803127E2920720E0A20720E0B207F7
:1026F00060F08F81982F9C5F8E81692F0E94F31369
:102700008981805D0E9437124AC08A819B81AC8199
:10271000BD81883E23E0920720E0A20720E0B207B7
:1027200060F08F81982F9D5F8E81692F0E94F31337
:102730008981805D0E94371232C08A819B81AC8181
:10274000BD8184369105A105B10560F08F81982F78
:102750009E5F8E81692F0E94F3138981805D0E94A4
:1027600037121DC08A819B81AC81BD818A30910561
:10277000A105B10560F08F81982F9F5F8E81692F31
:102780000E94F3138981805D0E94371208C08E81F8
:102790006F810E94F3138A81805D0E9437128A81C3
:1027A0009B81AC81BD812AE030E040E050E0BC017B
:1027B000CD010E94A815DA01C9018A839B83AC83ED
:1027C000BD838A819B81AC81BD810097A105B10544
:1027D00009F05CCF27960FB6F894DEBF0FBECDBFD1
:1027E000CF91DF910895DF93CF9300D00F92CDB7B3
:1027F000DEB78A836B8319828A81882319F48B81DF
:10280000898306C08A81813019F48B81805C898339
:10281000898180580E9499110F900F900F90CF914D
:10282000DF910895DF93CF93CDB7DEB78FE00E949D
:102830009911CF91DF910895DF93CF93CDB7DEB794
:102840008CE10E949911CF91DF910895DF93CF938E
:10285000CDB7DEB788E10E949911CF91DF9108953D
:10286000DF93CF93CDB7DEB727970FB6F894DEBFCF
:102870000FBECDBF8B837D836C834E832F831A82E3
:102880008B81882F90E0880F991F880F991F880FE0
:10289000991F8A838A81805C0E94991119820EC0D7
:1028A0008981282F30E08C819D81FC01E20FF31F8C
:1028B00080810E94371289818F5F89838981883066
:1028C00078F38E816F810E94F3138B810E943712FF
:1028D00027960FB6F894DEBF0FBECDBFCF91DF9124
:1028E0000895DF93CF93CDB7DEB762970FB6F89414
:1028F000DEBF0FBECDBF0E9417080E9408110E94C4
:102900000B0C0E94DB051A8A188A1F860E94620639
:102910008A8B80E060E00E94F31380E690E00E94E2
:10292000EC120BC080E069E00E94F31389E690E0AE
:102930000E94EC120E9462068A8B8A89813091F390
:1029400080E069E00E94F31380E790E00E94EC12BF
:1029500080E090E0AAEFB4E48B879C87AD87BE87C8
:102960006B857C858D859E8520E030E04AEF54E4C0
:102970000E941F02DC01CB018F839887A987BA8749
:102980006F81788589859A8520E030E040E85FE3B3
:102990000E94790388232CF481E090E09E838D834C
:1029A0003FC06F81788589859A8520E03FEF4FE7AA
:1029B00057E40E94190318164CF56B857C858D85AC
:1029C0009E8520E030E040E251E40E941F02DC01DD
:1029D000CB01BC01CD010E944900DC01CB019E83EB
:1029E0008D830FC088EC90E09C838B838B819C81CE
:1029F0000197F1F79C838B838D819E8101979E8344
:102A00008D838D819E81009769F714C06F817885D1
:102A100089859A850E944900DC01CB019E838D83C4
:102A20008D819E819A83898389819A810197F1F7AB
:102A30009A8389830E94D51280E00E94430C888B80
:102A40008889882F90E0880F991F8F878F85882F1E
:102A500090E00E942C155ACFDF93CF930F92CDB701
:102A6000DEB789838981882F90E0A0E0B0E0BC01C7
:102A7000CD0141E020E00E94231387E790E00E940F
:102A8000EC128981882339F480E00E947F0C81E078
:102A90000E947F0C59C08981823039F480E00E9405
:102AA0007F0C81E00E94D90C4FC08981843039F4B9
:102AB00080E00E947F0C81E00E94330D45C0898137
:102AC000863039F480E00E947F0C81E00E948D0DF9
:102AD0003BC08981883039F480E00E947F0C81E01E
:102AE0000E94E70D31C089818A3039F480E00E946C
:102AF000AC0C81E00E947F0C27C089818C3039F4B6
:102B000080E00E94AC0C81E00E94D90C1DC089813C
:102B10008E3039F480E00E94AC0C81E00E94330DCD
:102B200013C08981803139F480E00E94AC0C81E0CF
:102B30000E948D0D09C08981823131F480E00E94AC
:102B4000AC0C81E00E94E70D0F90CF91DF910895CA
:102B5000A1E21A2EAA1BBB1BFD010DC0AA1FBB1FA1
:102B6000EE1FFF1FA217B307E407F50720F0A21B13
:102B7000B30BE40BF50B661F771F881F991F1A9480
:102B800069F760957095809590959B01AC01BD01AA
:102B9000CF0108952F923F924F925F926F927F9252
:102BA0008F929F92AF92BF92CF92DF92EF92FF925D
:102BB0000F931F93CF93DF93CDB7DEB7CA1BDB0B09
:102BC0000FB6F894DEBF0FBECDBF09942A883988AE
:102BD00048885F846E847D848C849B84AA84B984B5
:102BE000C884DF80EE80FD800C811B81AA81B981C1
:102BF000CE0FD11D0FB6F894DEBF0FBECDBFED01D5
:062C00000895F894FFCFD7
:102C0600444F4F522053543A004F50454E454400CE
:102C1600434C4F53454400202000000000000000B4
:022C26000000AC
:00000001FF
