:100000000C942A000C94EC050C9410010C941A0129
:100010000C9447000C9447000C9447000C94470044
:100020000C9447000C9447000C9494000C94120616
:100030000C9447000C9447000C9447000C94470024
:100040000C9447000C9447000C9447000C94470014
:100050000C94470011241FBECFE5D8E0DEBFCDBF12
:1000600010E0A0E6B0E0E8E8FDE002C005900D92E7
:10007000A43DB107D9F710E0A4EDB0E001C01D9296
:10008000AA3DB107E1F70E9449060C94C2060C9400
:10009000000081B5886081BD089588E181BD11BCF3
:1000A0000895982F883030F481B5887F81BD81B55F
:1000B000892B81BD089583E389B930B520B580B51A
:1000C00090B5279522272795880F880F822B832BA1
:1000D000990F982B90BD549A539A08955D9BFECF2B
:1000E0008CB9089520E004C05D9BFECFECB92F5F72
:1000F000FC01E20FF11DE081EE23B1F708955F9B53
:10010000FECF8CB15F9A089585E083BF89B7816087
:1001100089BF0895819582BF08958CBF08959093FB
:10012000D7008093D60008951F920F920FB60F92BA
:1001300011242F933F934F935F936F937F938F93EC
:100140009F93AF93BF93EF93FF93E091D600F0910D
:10015000D7000995FF91EF91BF91AF919F918F913A
:100160007F916F915F914F913F912F910F900FBEB3
:100170000F901F9018958FB58E7F8FBD8FB58260C1
:100180008FBD8EB588608EBD8EB580618EBD8FB5FA
:100190008F7E8FBD8FB580628FBD8EB581608EBD25
:1001A0008EB582608EBD8EB58B7F8EBD8FB584601F
:1001B0008FBD84EC99E097BD86BD0895909581959B
:1001C0009F4F9DBD8CBD089597BD86BD08959BBD75
:1001D0008ABD089599BD88BD08958FB780688FBF87
:1001E00008958FB78F778FBF08958BB780648BBFCB
:1001F00085B7826085BF85B78E7F85BF08958BB731
:1002000080688BBF85B7886085BF85B78B7F85BFCA
:1002100008958BB780628BBF85B7826085BF0895D4
:100220001F920F920FB60F9211240F900FBE0F90D6
:100230001F9018951F920F920FB60F9211240F90D6
:100240000FBE0F901F90189581EE8ABB8FE087BB81
:100250009FEF94BB88EF81BB1BBA98BB15BA84E0B3
:1002600082BB0895843008F076C0683008F073C00F
:10027000423008F070C04423D1F58130A1F08130C4
:1002800030F08230E1F0833009F065C024C02AB339
:1002900081E090E002C0880F991F6A95E2F780958F
:1002A00082238ABB089527B381E090E002C0880FC3
:1002B000991F6A95E2F78095822387BB089524B33E
:1002C00081E090E002C0880F991F6A95E2F780955F
:1002D000822384BB089521B381E090E002C0880F9F
:1002E000991F6A95E2F78095822381BB089581303A
:1002F00091F0813028F08230C9F0833061F521C05F
:100300002AB381E090E002C0880F991F6A95E2F756
:10031000282B2ABB089527B381E090E002C0880F04
:10032000991F6A95E2F7282B27BB089524B381E033
:1003300090E002C0880F991F6A95E2F7282B24BB32
:10034000089521B381E090E002C0880F991F6A955B
:10035000E2F7282B21BB0895843008F076C068307E
:1003600008F073C0423008F070C04423D1F58130EA
:10037000A1F0813030F08230E1F0833009F065C0C7
:1003800024C02BB381E090E002C0880F991F6A95CA
:10039000E2F7809582238BBB089528B381E090E03B
:1003A00002C0880F991F6A95E2F78095822388BB67
:1003B000089525B381E090E002C0880F991F6A95E7
:1003C000E2F78095822385BB089522B381E090E017
:1003D00002C0880F991F6A95E2F78095822382BB3D
:1003E0000895813091F0813028F08230C9F0833057
:1003F00061F521C02BB381E090E002C0880F991F06
:100400006A95E2F7282B2BBB089528B381E090E092
:1004100002C0880F991F6A95E2F7282B28BB089520
:1004200025B381E090E002C0880F991F6A95E2F73A
:10043000282B25BB089522B381E090E002C0880FED
:10044000991F6A95E2F7282B22BB0895843090F516
:10045000683080F5813049F0813028F0823039F001
:10046000833041F516C029B303C026B301C023B3BE
:1004700081E090E0062E02C0880F991F0A94E2F7EF
:1004800030E08223932302C0959587956A95E2F721
:10049000089520B381E090E0062E02C0880F991FD6
:1004A0000A94E2F730E08223932302C09595879562
:1004B0006A95E2F70895843048F5662389F481301F
:1004C00049F0813028F0823039F08330F9F406C0E9
:1004D0001ABA089517BA089514BA089511BA08956A
:1004E0006130A1F4813051F0813028F0823049F040
:1004F000833061F409C08FEF8ABB08958FEF87BB0B
:1005000008958FEF84BB08958FEF81BB08958430E9
:1005100080F4813049F0813028F0823039F0833026
:1005200041F406C06BBB089568BB089565BB089590
:1005300062BB0895843080F4813049F0813028F026
:10054000823039F0833041F406C089B3089586B310
:10055000089583B3089580B308953F983E9A3D9AD5
:10056000329A319A309A379A089597B1907E97B916
:1005700097B1982B97B9369A349BFECF349A85B1B0
:1005800008958AEF90E00E94EA0008958CE790E0D9
:100590000E94EA000895FF920F931F93CF93DF9379
:1005A000F82E062F10E0C8ECD0E08F2D602F41E030
:1005B0000E94AC0188EE93E0FE013197F1F70197BC
:1005C000D9F78F2D602F40E00E94AC0188EE93E0B8
:1005D000FE013197F1F70197D9F71F5F1A3029F71C
:1005E000DF91CF911F910F91FF90089540E00E94FD
:1005F000AC01089541E00E94AC0108950F931F9350
:10060000182F062F0E942602813079F4812F602F47
:1006100040E00E94AC0188EE93E028EC30E0F90164
:100620003197F1F70197D9F714C0812F602F0E94FD
:100630002602882371F4812F602F41E00E94AC01D3
:1006400088EE93E028EC30E0F9013197F1F701975B
:10065000D9F71F910F9108950F931F93DF93CF93B5
:10066000CDB7DEB760970FB6F894DEBF0FBECDBF33
:1006700000E081E0602F40E00E94AC0181E064E096
:100680000E942602882311F414E017C081E065E07F
:100690000E942602882311F415E00FC081E066E075
:1006A0000E942602882311F416E007C081E067E06B
:1006B0000E942602882369F517E081E0612F0E94DD
:1006C00026028823D1F3FE01319680E1DF011D92DD
:1006D0008A95E9F787E0898388E08A8389E08B83BC
:1006E00084E08D8385E08E8386E08F8381E0898737
:1006F00082E08A8783E08B87812F90E00497880FC0
:10070000991F880F991F800F911DE80FF91F808195
:100710000AC081E0602F41E00E94AC010F5F04300D
:1007200009F0A7CF8FEF60960FB6F894DEBF0FBE2B
:10073000CDBFCF91DF911F910F9108951F93182F77
:1007400083E065E041E00E94AC0183E066E040E0C8
:100750000E94AC0182E0612F0E94870283E067E083
:1007600041E00E94AC0180EA9FE00197F1F783E04D
:1007700067E040E00E94AC011F910895805D0E94F7
:100780009E0308951F93CF93DF93EC0110E003C005
:100790000E949E031F5FFE01E10FF11D80818823EF
:1007A000B9F7DF91CF911F9108950E949E0308959C
:1007B0001F93182F83E065E040E00E94AC0183E0C6
:1007C00066E040E00E94AC0182E0612F0E94870257
:1007D00083E067E041E00E94AC0180EA9FE001977E
:1007E000F1F783E067E040E00E94AC011F910895BB
:1007F00088E10E94D80308958CE10E94D8030895EF
:100800008FE00E94D80308950F931F93CF93DF9337
:100810008C01862F880F880F880F805C0E94D80378
:10082000C0E0D0E0F801EC0FFD1F80810E949E0324
:100830002196C830D105B1F7DF91CF911F910F916B
:100840000895813019F0823009F4605C862F805859
:100850000E94D80308956F927F928F929F92AF92D9
:10086000BF92CF92DF92EF92FF920F931F937B0183
:100870008C01C42EB22E611571058105910541F4DC
:10088000842F622F0E94210480E30E949E036AC08D
:1008900035E0632E620E722E739422E0822E8B0C52
:1008A00093E0992E9B0C84E0A82EAB0CC801B701F5
:1008B0002AE030E040E050E00E94A006D62E80EA18
:1008C000E81686E8F80681E0080780E0180718F0C7
:1008D0008C2D662D29C080E1E81687E2F80680E0BD
:1008E000080780E0180718F08C2D6A2D1DC088EECF
:1008F000E81683E0F80680E0080780E0180718F0A3
:100900008C2D692D11C084E6E816F104010511054E
:1009100018F08C2D682D08C08AE0E816F104010556
:10092000110530F08C2D672D0E9421048D2D05C0FE
:100930008C2D6B2D0E9421048E2D805D0E949E03C4
:10094000C801B7012AE030E040E050E00E94A00674
:10095000C901DA017C018D01E114F10401051105E1
:1009600009F0A4CF1F910F91FF90EF90DF90CF90EF
:10097000BF90AF909F908F907F906F900895FF925F
:100980000F931F93F82E162F042F880F880F880FB0
:10099000805C0E94D803812F602F0E9421048F2D3C
:1009A0000E949E031F910F91FF90089580E991E0AE
:1009B00028EC30E0F9013197F1F70197D9F788E396
:1009C0000E94D8038CE00E94D80381E00E94D803E3
:1009D00086E00E94D80308951F9380E690E00E946D
:1009E000C20382E060E00E94210485E790E00E945B
:1009F000C20380E197E228EC30E0F9013197F1F78A
:100A00000197D9F781E00E94D80386E890E00E9420
:100A1000C20382E060E00E94210480ED97E028ECB0
:100A200030E0F9013197F1F70197D9F70E942C03D3
:100A3000182F8F3FD9F30E94BE0380E197E228EC84
:100A400030E0F9013197F1F70197D9F781E00E9481
:100A5000D803113011F481E005C0123011F482E0A6
:100A600001C080E01F910895CF92DF92FF920F9313
:100A70001F93DF93CF93CDB7DEB768970FB6F89487
:100A8000DEBF0FBECDBFDE011196E8ECF0E08CE0DA
:100A900001900D928150E1F780E990E00E94C2033D
:100AA00082E060E00E94210481EA90E00E94C2039B
:100AB00080E197E228EC30E0F9013197F1F70197F6
:100AC000D9F781E00E94D8038EEA90E00E94C20329
:100AD00082E060E00E9421048BEB90E00E94C20360
:100AE00080ED97E028EC30E0F9013197F1F70197BC
:100AF000D9F78E01035F1F4F9BE0F92E88ECC82EBB
:100B0000D12C0E942C038F3FE1F3F80180830E94D7
:100B1000BE0380E197E2F6013197F1F70197D9F72B
:100B200082E06F2D0E9421048AE20E94D50380E1B9
:100B300097E2F6013197F1F70197D9F70E94F80390
:100B4000F3940F5F1F4FF7E1FF16D9F681E00E9483
:100B5000D80380E060E00E94210440E020E030E023
:100B60008E01035F1F4FBE016F5F7F4FF801E20FE1
:100B7000F31FDB01A20FB31F90818C91981341E00A
:100B80002F5F3F4F2C30310589F780E0413009F06D
:100B900081E068960FB6F894DEBF0FBECDBFCF914F
:100BA000DF911F910F91FF90DF90CF9008950E94E9
:100BB0003405813041F40E94C1028DE20E948A0016
:100BC0000E9484000895882331F483E090E063E07C
:100BD00070E00E94CB0208951F920F920FB60F9201
:100BE00011242F933F934F935F936F937F938F9332
:100BF0009F93AF93BF93EF93FF930E94EC04809376
:100C0000C700FF91EF91BF91AF919F918F917F911D
:100C10006F915F914F913F912F910F900FBE0F9069
:100C20001F9018951F920F920FB60F9211242F93B9
:100C30003F934F935F936F937F938F939F93AF9364
:100C4000BF93EF93FF938091D4009091D5000196CC
:100C50009093D5008093D4008253914049F48DE263
:100C60000E948A001092D5001092D4000E94C60201
:100C7000FF91EF91BF91AF919F918F917F916F9174
:100C80005F914F913F912F910F900FBE0F901F904A
:100C90001895CF93DF930E9424010E94D6040E94EE
:100CA000BB000E94F5000E94ED00C8ECD0E08091EE
:100CB000C700813041F561E070E080E090E040E005
:100CC00020E00E942B0480E395E7FE013197F1F7C5
:100CD0000197D9F780E065E041E00E94AC0180E235
:100CE0009EE4FE013197F1F70197D9F780E065E0C6
:100CF00040E00E94AC0181E00E94D80380E060E007
:100D00000E9421041AC0823091F662E070E080E017
:100D100090E040E020E00E942B0480E197E2FE0199
:100D20003197F1F70197D9F781E00E94D80380E06D
:100D300060E00E9421040E94D7051092C700B7CF3F
:100D4000A1E21A2EAA1BBB1BFD010DC0AA1FBB1FCF
:100D5000EE1FFF1FA217B307E407F50720F0A21B41
:100D6000B30BE40BF50B661F771F881F991F1A94AE
:100D700069F760957095809590959B01AC01BD01D8
:080D8000CF010895F894FFCFA4
:100D8800506C656173652073656C656374204D6F85
:100D98006465203A00312D6C696768742F322D67BD
:100DA80061726167650073656C656374203A200041
:100DB80057656C636F6D6520746F20536D61727435
:100DC80000486F6D652053797374656D2000436F1B
:100DD8006E74726F6C204D6F646500456E74657239
:100DE80020506173733A00030908070605040302DB
:040DF80001090807DE
:00000001FF
